{
  "contractName": "SpinProccessor",
  "abi": [
    {
      "inputs": [
        {
          "internalType": "address",
          "name": "usdt",
          "type": "address"
        }
      ],
      "stateMutability": "nonpayable",
      "type": "constructor"
    },
    {
      "anonymous": false,
      "inputs": [
        {
          "indexed": false,
          "internalType": "address",
          "name": "sender",
          "type": "address"
        },
        {
          "indexed": false,
          "internalType": "uint256",
          "name": "amount",
          "type": "uint256"
        }
      ],
      "name": "Deposit",
      "type": "event"
    },
    {
      "inputs": [
        {
          "internalType": "address",
          "name": "from",
          "type": "address"
        }
      ],
      "name": "totalDepositOf",
      "outputs": [
        {
          "internalType": "uint256",
          "name": "",
          "type": "uint256"
        }
      ],
      "stateMutability": "view",
      "type": "function",
      "constant": true
    },
    {
      "inputs": [],
      "name": "deposit",
      "outputs": [],
      "stateMutability": "payable",
      "type": "function",
      "payable": true
    },
    {
      "inputs": [
        {
          "internalType": "uint256",
          "name": "amount",
          "type": "uint256"
        }
      ],
      "name": "depositUsd",
      "outputs": [],
      "stateMutability": "nonpayable",
      "type": "function"
    },
    {
      "inputs": [],
      "name": "withdraw",
      "outputs": [],
      "stateMutability": "nonpayable",
      "type": "function"
    },
    {
      "inputs": [],
      "name": "withdrawUSdt",
      "outputs": [],
      "stateMutability": "nonpayable",
      "type": "function"
    }
  ],
  "bytecode": "0x608060405234801561001057600080fd5b50604051610c96380380610c96833981810160405281019061003291906100ce565b336000806101000a81548173ffffffffffffffffffffffffffffffffffffffff021916908373ffffffffffffffffffffffffffffffffffffffff16021790555080600160006101000a81548173ffffffffffffffffffffffffffffffffffffffff021916908373ffffffffffffffffffffffffffffffffffffffff16021790555050610140565b6000815190506100c881610129565b92915050565b6000602082840312156100e057600080fd5b60006100ee848285016100b9565b91505092915050565b600061010282610109565b9050919050565b600073ffffffffffffffffffffffffffffffffffffffff82169050919050565b610132816100f7565b811461013d57600080fd5b50565b610b478061014f6000396000f3fe60806040526004361061004a5760003560e01c80633ccfd60b1461004f5780634cc6fd1514610066578063c5d511e11461008f578063d0e30db0146100cc578063f2195ccd146100d6575b600080fd5b34801561005b57600080fd5b506100646100ed565b005b34801561007257600080fd5b5061008d600480360381019061008891906107b2565b61022d565b005b34801561009b57600080fd5b506100b660048036038101906100b19190610760565b61039b565b6040516100c39190610958565b60405180910390f35b6100d46103e4565b005b3480156100e257600080fd5b506100eb6104b8565b005b60008054906101000a900473ffffffffffffffffffffffffffffffffffffffff1673ffffffffffffffffffffffffffffffffffffffff163373ffffffffffffffffffffffffffffffffffffffff161461017b576040517f08c379a0000000000000000000000000000000000000000000000000000000008152600401610172906108f8565b60405180910390fd5b6000479050600081116101c3576040517f08c379a00000000000000000000000000000000000000000000000000000000081526004016101ba90610938565b60405180910390fd5b60008054906101000a900473ffffffffffffffffffffffffffffffffffffffff1673ffffffffffffffffffffffffffffffffffffffff166108fc829081150290604051600060405180830381858888f19350505050158015610229573d6000803e3d6000fd5b5050565b60008111610270576040517f08c379a000000000000000000000000000000000000000000000000000000000815260040161026790610938565b60405180910390fd5b80600160009054906101000a900473ffffffffffffffffffffffffffffffffffffffff1673ffffffffffffffffffffffffffffffffffffffff1663dd62ed3e33306040518363ffffffff1660e01b81526004016102ce9291906108a6565b60206040518083038186803b1580156102e657600080fd5b505afa1580156102fa573d6000803e3d6000fd5b505050506040513d601f19601f8201168201806040525081019061031e91906107db565b101561035f576040517f08c379a000000000000000000000000000000000000000000000000000000000815260040161035690610918565b60405180910390fd5b7fe1fffcc4923d04b559f4d29a8bfc6cda04eb5b0d3c460751c2402c5c5cc9109c33826040516103909291906108cf565b60405180910390a150565b6000600260008373ffffffffffffffffffffffffffffffffffffffff1673ffffffffffffffffffffffffffffffffffffffff168152602001908152602001600020549050919050565b60003411610427576040517f08c379a000000000000000000000000000000000000000000000000000000000815260040161041e90610938565b60405180910390fd5b34600260003373ffffffffffffffffffffffffffffffffffffffff1673ffffffffffffffffffffffffffffffffffffffff16815260200190815260200160002060008282546104769190610984565b925050819055507fe1fffcc4923d04b559f4d29a8bfc6cda04eb5b0d3c460751c2402c5c5cc9109c33346040516104ae9291906108cf565b60405180910390a1565b60008054906101000a900473ffffffffffffffffffffffffffffffffffffffff1673ffffffffffffffffffffffffffffffffffffffff163373ffffffffffffffffffffffffffffffffffffffff1614610546576040517f08c379a000000000000000000000000000000000000000000000000000000000815260040161053d906108f8565b60405180910390fd5b6000600160009054906101000a900473ffffffffffffffffffffffffffffffffffffffff1673ffffffffffffffffffffffffffffffffffffffff166370a08231306040518263ffffffff1660e01b81526004016105a3919061088b565b60206040518083038186803b1580156105bb57600080fd5b505afa1580156105cf573d6000803e3d6000fd5b505050506040513d601f19601f820116820180604052508101906105f391906107db565b90506000811015610639576040517f08c379a000000000000000000000000000000000000000000000000000000000815260040161063090610938565b60405180910390fd5b600160009054906101000a900473ffffffffffffffffffffffffffffffffffffffff1673ffffffffffffffffffffffffffffffffffffffff1663a9059cbb60008054906101000a900473ffffffffffffffffffffffffffffffffffffffff16836040518363ffffffff1660e01b81526004016106b69291906108cf565b602060405180830381600087803b1580156106d057600080fd5b505af11580156106e4573d6000803e3d6000fd5b505050506040513d601f19601f820116820180604052508101906107089190610789565b5050565b60008135905061071b81610acc565b92915050565b60008151905061073081610ae3565b92915050565b60008135905061074581610afa565b92915050565b60008151905061075a81610afa565b92915050565b60006020828403121561077257600080fd5b60006107808482850161070c565b91505092915050565b60006020828403121561079b57600080fd5b60006107a984828501610721565b91505092915050565b6000602082840312156107c457600080fd5b60006107d284828501610736565b91505092915050565b6000602082840312156107ed57600080fd5b60006107fb8482850161074b565b91505092915050565b61080d816109da565b82525050565b6000610820600c83610973565b915061082b82610a51565b602082019050919050565b6000610843601d83610973565b915061084e82610a7a565b602082019050919050565b6000610866601d83610973565b915061087182610aa3565b602082019050919050565b61088581610a18565b82525050565b60006020820190506108a06000830184610804565b92915050565b60006040820190506108bb6000830185610804565b6108c86020830184610804565b9392505050565b60006040820190506108e46000830185610804565b6108f1602083018461087c565b9392505050565b6000602082019050818103600083015261091181610813565b9050919050565b6000602082019050818103600083015261093181610836565b9050919050565b6000602082019050818103600083015261095181610859565b9050919050565b600060208201905061096d600083018461087c565b92915050565b600082825260208201905092915050565b600061098f82610a18565b915061099a83610a18565b9250827fffffffffffffffffffffffffffffffffffffffffffffffffffffffffffffffff038211156109cf576109ce610a22565b5b828201905092915050565b60006109e5826109f8565b9050919050565b60008115159050919050565b600073ffffffffffffffffffffffffffffffffffffffff82169050919050565b6000819050919050565b7f4e487b7100000000000000000000000000000000000000000000000000000000600052601160045260246000fd5b7f6f6e6c79206f776e657221210000000000000000000000000000000000000000600082015250565b7f506c6561736520616c6c6f7720796f7572206d6f6e6579206669727374000000600082015250565b7f546865206d696e696d756d20616d6f756e7420697320696e76616c6964000000600082015250565b610ad5816109da565b8114610ae057600080fd5b50565b610aec816109ec565b8114610af757600080fd5b50565b610b0381610a18565b8114610b0e57600080fd5b5056fea2646970667358221220bb977edb85975e194592ab9b9aed1da4056c60705e9017d4ca0305556556a46a64736f6c63430008010033",
  "immutableReferences": {},
  "source": "// SPDX-License-Identifier: MIT\npragma solidity ^0.8.1;\n\nimport \"@openzeppelin/contracts/token/ERC20/ERC20.sol\";\n\ncontract SpinProccessor {\n    address private _owner;\n    ERC20 private _usdt;\n    mapping(address => uint256) _deposits;\n\n    event Deposit(address sender, uint256 amount);\n\n    constructor(address usdt) {\n        _owner = msg.sender;\n        _usdt = ERC20(usdt);\n    }\n\n    modifier onlyOwner() {\n        require(msg.sender == _owner, \"only owner!!\");\n        _;\n    }\n\n    function totalDepositOf(address from) public view returns (uint256) {\n        return _deposits[from];\n    }\n\n    function deposit() public payable {\n        require(msg.value > 0, \"The minimum amount is invalid\");\n        _deposits[msg.sender] += msg.value;\n        emit Deposit(msg.sender, msg.value);\n    }\n\n    function depositUsd(uint256 amount) public {\n        require(amount > 0, \"The minimum amount is invalid\");\n        require(\n            _usdt.allowance(msg.sender, address(this)) >= amount,\n            \"Please allow your money first\"\n        );\n\n        emit Deposit(msg.sender, amount);\n    }\n\n    function withdraw() public onlyOwner {\n        uint256 balance = address(this).balance;\n        require(balance > 0, \"The minimum amount is invalid\");\n        payable(_owner).transfer(balance);\n    }\n\n    function withdrawUSdt() public onlyOwner {\n        uint256 balance = _usdt.balanceOf(address(this));\n        require(balance >= 0, \"The minimum amount is invalid\");\n        _usdt.transfer(_owner, balance);\n    }\n}\n",
  "sourcePath": "/Users/macos/Desktop/project-all/golang/spin_game/contract/contracts/Spin.sol",
  "compiler": {
    "name": "solc",
    "version": "0.8.1+commit.df193b15.Emscripten.clang"
  },
  "schemaVersion": "3.4.3",
  "updatedAt": "2021-11-08T19:02:43.749Z",
  "networkType": "ethereum",
  "devdoc": {
    "kind": "dev",
    "methods": {},
    "version": 1
  },
  "userdoc": {
    "kind": "user",
    "methods": {},
    "version": 1
  }
}